{
  "contractName": "Pixie",
  "abi": [
    {
      "constant": true,
      "inputs": [
        {
          "name": "",
          "type": "uint256"
        }
      ],
      "name": "colors",
      "outputs": [
        {
          "name": "",
          "type": "uint24"
        }
      ],
      "payable": false,
      "stateMutability": "view",
      "type": "function"
    },
    {
      "inputs": [],
      "payable": false,
      "stateMutability": "nonpayable",
      "type": "constructor"
    },
    {
      "anonymous": false,
      "inputs": [
        {
          "indexed": false,
          "name": "row",
          "type": "uint8"
        },
        {
          "indexed": false,
          "name": "column",
          "type": "uint8"
        },
        {
          "indexed": false,
          "name": "color",
          "type": "uint24"
        }
      ],
      "name": "ColorSetEvent",
      "type": "event"
    },
    {
      "constant": true,
      "inputs": [],
      "name": "getAllColors",
      "outputs": [
        {
          "name": "_colors",
          "type": "uint24[256]"
        }
      ],
      "payable": false,
      "stateMutability": "view",
      "type": "function"
    },
    {
      "constant": true,
      "inputs": [
        {
          "name": "row",
          "type": "uint8"
        },
        {
          "name": "column",
          "type": "uint8"
        }
      ],
      "name": "getColor",
      "outputs": [
        {
          "name": "color",
          "type": "uint24"
        }
      ],
      "payable": false,
      "stateMutability": "view",
      "type": "function"
    },
    {
      "constant": false,
      "inputs": [
        {
          "name": "row",
          "type": "uint8"
        },
        {
          "name": "column",
          "type": "uint8"
        },
        {
          "name": "color",
          "type": "uint24"
        }
      ],
      "name": "setColor",
      "outputs": [],
      "payable": false,
      "stateMutability": "nonpayable",
      "type": "function"
    }
  ],
  "bytecode": "0x608060405234801561001057600080fd5b5060008090505b601060ff168160ff1610156100735760008090505b601060ff168160ff16101561006557610058828262ffffff610079640100000000026401000000009004565b808060010191505061002c565b508080600101915050610017565b5061011b565b80600083601086020160ff166101008110151561009257fe5b600a91828204019190066003026101000a81548162ffffff021916908362ffffff1602179055507fb854c806135bd2c3d62427fc60c932437b13b24d52d82d8596dd18a0c395d5f4838383604051808460ff1660ff1681526020018360ff1660ff1681526020018262ffffff1662ffffff168152602001935050505060405180910390a1505050565b6103ac8061012a6000396000f3fe608060405260043610610062576000357c0100000000000000000000000000000000000000000000000000000000900463ffffffff16806335de7c621461006757806368b78b7a146100bb578063bd11f69d14610124578063e2f9ed151461017d575b600080fd5b34801561007357600080fd5b5061007c6101d7565b604051808261010060200280838360005b838110156100a857808201518184015260208101905061008d565b5050505090500191505060405180910390f35b3480156100c757600080fd5b50610104600480360360408110156100de57600080fd5b81019080803560ff169060200190929190803560ff16906020019092919050505061024e565b604051808262ffffff1662ffffff16815260200191505060405180910390f35b34801561013057600080fd5b5061015d6004803603602081101561014757600080fd5b810190808035906020019092919050505061028a565b604051808262ffffff1662ffffff16815260200191505060405180910390f35b34801561018957600080fd5b506101d5600480360360608110156101a057600080fd5b81019080803560ff169060200190929190803560ff169060200190929190803562ffffff1690602001909291905050506102b9565b005b6101df61035b565b60006101008060200260405190810160405280929190826101008015610244576020028201916000905b82829054906101000a900462ffffff1662ffffff16815260200190600301906020826002010492830192600103820291508084116102095790505b5050505050905090565b60008082601085020160ff166101008110151561026757fe5b600a91828204019190066003029054906101000a900462ffffff16905092915050565b6000816101008110151561029a57fe5b600a9182820401919006600302915054906101000a900462ffffff1681565b80600083601086020160ff16610100811015156102d257fe5b600a91828204019190066003026101000a81548162ffffff021916908362ffffff1602179055507fb854c806135bd2c3d62427fc60c932437b13b24d52d82d8596dd18a0c395d5f4838383604051808460ff1660ff1681526020018360ff1660ff1681526020018262ffffff1662ffffff168152602001935050505060405180910390a1505050565b612000604051908101604052806101009060208202803883398082019150509050509056fea165627a7a723058201dde8ffb043394f5ef1c01ce9a1978d14b455296aa451b903149a1e6722f541e0029",
  "source": "pragma solidity >=0.4.21 <0.6.0;\r\n\r\ncontract Pixie {\r\n\r\n  uint8 constant numColumns = 16;\r\n  uint8 constant numRows = 16;\r\n\r\n  uint24[numColumns * numRows] public colors;\r\n\r\n  event ColorSetEvent(uint8 row, uint8 column, uint24 color);\r\n\r\n  constructor() public {\r\n    for(uint8 i = 0; i < numRows; i++) {\r\n      for(uint8 j = 0; j < numColumns; j++) {\r\n        setColor(i, j, 0xffffff);\r\n      }\r\n    }\r\n  }\r\n\r\n  function getAllColors() public view returns (uint24[numColumns * numRows] memory _colors) {\r\n    return colors;\r\n  }\r\n\r\n  function getColor(uint8 row, uint8 column) public view returns (uint24 color) {\r\n    return colors[row * numColumns + column];\r\n  }\r\n\r\n\r\n  function setColor(uint8 row, uint8 column, uint24 color) public {\r\n    colors[row * numColumns + column] = color;\r\n\r\n    emit ColorSetEvent(row, column, color);\r\n  }\r\n}",
  "sourcePath": "C:/Users/mvandani/Code/Sylph/Pixie/src/contracts/Pixie.sol",
  "compiler": {
    "name": "solc",
    "version": "0.5.0+commit.1d4f565a.Emscripten.clang"
  },
  "schemaVersion": "3.0.9",
  "updatedAt": "2019-11-15T17:16:11.885Z",
  "devdoc": {
    "methods": {}
  },
  "userdoc": {
    "methods": {}
  }
}