{
  "contractName": "Pixie",
  "abi": [
    {
      "constant": true,
      "inputs": [
        {
          "name": "",
          "type": "uint256"
        }
      ],
      "name": "colors",
      "outputs": [
        {
          "name": "",
          "type": "bytes3"
        }
      ],
      "payable": false,
      "stateMutability": "view",
      "type": "function"
    },
    {
      "inputs": [],
      "payable": false,
      "stateMutability": "nonpayable",
      "type": "constructor"
    },
    {
      "constant": true,
      "inputs": [],
      "name": "getAllColors",
      "outputs": [
        {
          "name": "_colors",
          "type": "bytes3[256]"
        }
      ],
      "payable": false,
      "stateMutability": "view",
      "type": "function"
    },
    {
      "constant": true,
      "inputs": [
        {
          "name": "row",
          "type": "uint256"
        },
        {
          "name": "column",
          "type": "uint256"
        }
      ],
      "name": "getColor",
      "outputs": [
        {
          "name": "color",
          "type": "bytes3"
        }
      ],
      "payable": false,
      "stateMutability": "view",
      "type": "function"
    },
    {
      "constant": false,
      "inputs": [
        {
          "name": "row",
          "type": "uint256"
        },
        {
          "name": "column",
          "type": "uint256"
        },
        {
          "name": "color",
          "type": "bytes3"
        }
      ],
      "name": "setColor",
      "outputs": [],
      "payable": false,
      "stateMutability": "nonpayable",
      "type": "function"
    }
  ],
  "bytecode": "0x608060405234801561001057600080fd5b5060008090505b60108110156100875760008090505b60108110156100795761006c828262ffffff7d0100000000000000000000000000000000000000000000000000000000000261008d640100000000026401000000009004565b8080600101915050610026565b508080600101915050610017565b506100eb565b806000836010860201610100811015156100a357fe5b600a91828204019190066003026101000a81548162ffffff02191690837d01000000000000000000000000000000000000000000000000000000000090040217905550505050565b61044c806100fa6000396000f3fe608060405260043610610062576000357c0100000000000000000000000000000000000000000000000000000000900463ffffffff16806335de7c6214610067578063bb54e272146100bb578063bd11f69d1461012a578063eded5d9e146101b9575b600080fd5b34801561007357600080fd5b5061007c610252565b604051808261010060200280838360005b838110156100a857808201518184015260208101905061008d565b5050505090500191505060405180910390f35b3480156100c757600080fd5b50610128600480360360608110156100de57600080fd5b81019080803590602001909291908035906020019092919080357cffffffffffffffffffffffffffffffffffffffffffffffffffffffffff191690602001909291905050506102ff565b005b34801561013657600080fd5b506101636004803603602081101561014d57600080fd5b810190808035906020019092919050505061035d565b60405180827cffffffffffffffffffffffffffffffffffffffffffffffffffffffffff19167cffffffffffffffffffffffffffffffffffffffffffffffffffffffffff1916815260200191505060405180910390f35b3480156101c557600080fd5b506101fc600480360360408110156101dc57600080fd5b8101908080359060200190929190803590602001909291905050506103a7565b60405180827cffffffffffffffffffffffffffffffffffffffffffffffffffffffffff19167cffffffffffffffffffffffffffffffffffffffffffffffffffffffffff1916815260200191505060405180910390f35b61025a6103fb565b600061010080602002604051908101604052809291908261010080156102f5576020028201916000905b82829054906101000a90047d010000000000000000000000000000000000000000000000000000000000027cffffffffffffffffffffffffffffffffffffffffffffffffffffffffff1916815260200190600301906020826002010492830192600103820291508084116102845790505b5050505050905090565b8060008360108602016101008110151561031557fe5b600a91828204019190066003026101000a81548162ffffff02191690837d01000000000000000000000000000000000000000000000000000000000090040217905550505050565b6000816101008110151561036d57fe5b600a9182820401919006600302915054906101000a90047d0100000000000000000000000000000000000000000000000000000000000281565b600080826010850201610100811015156103bd57fe5b600a91828204019190066003029054906101000a90047d01000000000000000000000000000000000000000000000000000000000002905092915050565b612000604051908101604052806101009060208202803883398082019150509050509056fea165627a7a723058206f29e06669be76caab0be6b49513a290f4cce786f0beb06ae54e4b566f04ff880029",
  "source": "pragma solidity >=0.4.21 <0.6.0;\r\n\r\ncontract Pixie {\r\n\r\n  uint constant numColumns = 16;\r\n  uint constant numRows = 16;\r\n\r\n  bytes3[256] public colors;\r\n\r\n  constructor() public {\r\n    for(uint i = 0; i < numRows; i++) {\r\n      for(uint j = 0; j < numColumns; j++) {\r\n        setColor(i, j, 0xffffff);\r\n      }\r\n    }\r\n  }\r\n\r\n  function getAllColors() public view returns (bytes3[256] memory _colors) {\r\n    return colors;\r\n  }\r\n\r\n  function getColor(uint row, uint column) public view returns (bytes3 color) {\r\n    return colors[row * numColumns + column];\r\n  }\r\n\r\n\r\n  function setColor(uint row, uint column, bytes3 color) public {\r\n    colors[row * numColumns + column] = color;\r\n  }\r\n}",
  "sourcePath": "C:/Users/mvandani/Code/Sylph/Pixie/src/contracts/Pixie.sol",
  "compiler": {
    "name": "solc",
    "version": "0.5.0+commit.1d4f565a.Emscripten.clang"
  },
  "schemaVersion": "3.0.9",
  "updatedAt": "2019-11-08T21:24:23.767Z",
  "devdoc": {
    "methods": {}
  },
  "userdoc": {
    "methods": {}
  }
}