{
  "contractName": "Pixie",
  "abi": [
    {
      "inputs": [],
      "payable": false,
      "stateMutability": "nonpayable",
      "type": "constructor"
    },
    {
      "anonymous": false,
      "inputs": [
        {
          "indexed": false,
          "internalType": "uint8",
          "name": "row",
          "type": "uint8"
        },
        {
          "indexed": false,
          "internalType": "uint8",
          "name": "column",
          "type": "uint8"
        },
        {
          "indexed": false,
          "internalType": "uint24",
          "name": "color",
          "type": "uint24"
        }
      ],
      "name": "ColorSetEvent",
      "type": "event"
    },
    {
      "constant": true,
      "inputs": [],
      "name": "active",
      "outputs": [
        {
          "internalType": "bool",
          "name": "",
          "type": "bool"
        }
      ],
      "payable": false,
      "stateMutability": "view",
      "type": "function"
    },
    {
      "constant": true,
      "inputs": [
        {
          "internalType": "address",
          "name": "",
          "type": "address"
        }
      ],
      "name": "allowedAddresses",
      "outputs": [
        {
          "internalType": "bool",
          "name": "",
          "type": "bool"
        }
      ],
      "payable": false,
      "stateMutability": "view",
      "type": "function"
    },
    {
      "constant": true,
      "inputs": [
        {
          "internalType": "uint256",
          "name": "",
          "type": "uint256"
        }
      ],
      "name": "colors",
      "outputs": [
        {
          "internalType": "uint24",
          "name": "",
          "type": "uint24"
        }
      ],
      "payable": false,
      "stateMutability": "view",
      "type": "function"
    },
    {
      "constant": true,
      "inputs": [],
      "name": "owner",
      "outputs": [
        {
          "internalType": "address",
          "name": "",
          "type": "address"
        }
      ],
      "payable": false,
      "stateMutability": "view",
      "type": "function"
    },
    {
      "constant": false,
      "inputs": [],
      "name": "pause",
      "outputs": [],
      "payable": false,
      "stateMutability": "nonpayable",
      "type": "function"
    },
    {
      "constant": false,
      "inputs": [],
      "name": "resume",
      "outputs": [],
      "payable": false,
      "stateMutability": "nonpayable",
      "type": "function"
    },
    {
      "constant": false,
      "inputs": [
        {
          "internalType": "address",
          "name": "account",
          "type": "address"
        }
      ],
      "name": "grantAccess",
      "outputs": [],
      "payable": false,
      "stateMutability": "nonpayable",
      "type": "function"
    },
    {
      "constant": false,
      "inputs": [
        {
          "internalType": "address",
          "name": "account",
          "type": "address"
        }
      ],
      "name": "revokeAccess",
      "outputs": [],
      "payable": false,
      "stateMutability": "nonpayable",
      "type": "function"
    },
    {
      "constant": true,
      "inputs": [
        {
          "internalType": "address",
          "name": "account",
          "type": "address"
        }
      ],
      "name": "hasAccess",
      "outputs": [
        {
          "internalType": "bool",
          "name": "allowed",
          "type": "bool"
        }
      ],
      "payable": false,
      "stateMutability": "view",
      "type": "function"
    },
    {
      "constant": true,
      "inputs": [],
      "name": "getAllColors",
      "outputs": [
        {
          "internalType": "uint24[256]",
          "name": "_colors",
          "type": "uint24[256]"
        }
      ],
      "payable": false,
      "stateMutability": "view",
      "type": "function"
    },
    {
      "constant": true,
      "inputs": [
        {
          "internalType": "uint8",
          "name": "row",
          "type": "uint8"
        },
        {
          "internalType": "uint8",
          "name": "column",
          "type": "uint8"
        }
      ],
      "name": "getColor",
      "outputs": [
        {
          "internalType": "uint24",
          "name": "color",
          "type": "uint24"
        }
      ],
      "payable": false,
      "stateMutability": "view",
      "type": "function"
    },
    {
      "constant": false,
      "inputs": [
        {
          "internalType": "uint8",
          "name": "row",
          "type": "uint8"
        },
        {
          "internalType": "uint8",
          "name": "column",
          "type": "uint8"
        },
        {
          "internalType": "uint24",
          "name": "color",
          "type": "uint24"
        }
      ],
      "name": "setColor",
      "outputs": [],
      "payable": false,
      "stateMutability": "nonpayable",
      "type": "function"
    }
  ],
  "bytecode": "0x60806040526001600060146101000a81548160ff02191690831515021790555034801561002b57600080fd5b50336000806101000a81548173ffffffffffffffffffffffffffffffffffffffff021916908373ffffffffffffffffffffffffffffffffffffffff16021790555061009c6000809054906101000a900473ffffffffffffffffffffffffffffffffffffffff1661012860201b60201c565b60008090505b601060ff168160ff1610156101225760008090505b601060ff168160ff1610156101145762fcfcfc600282601085020160ff1661010081106100e057fe5b600a91828204019190066003026101000a81548162ffffff021916908362ffffff16021790555080806001019150506100b7565b5080806001019150506100a2565b50610244565b6000809054906101000a900473ffffffffffffffffffffffffffffffffffffffff1673ffffffffffffffffffffffffffffffffffffffff163373ffffffffffffffffffffffffffffffffffffffff16146101ea576040517f08c379a00000000000000000000000000000000000000000000000000000000081526004018080602001828103825260148152602001807f73656e646572206d757374206265206f776e657200000000000000000000000081525060200191505060405180910390fd5b60018060008373ffffffffffffffffffffffffffffffffffffffff1673ffffffffffffffffffffffffffffffffffffffff16815260200190815260200160002060006101000a81548160ff02191690831515021790555050565b610d05806102536000396000f3fe608060405234801561001057600080fd5b50600436106100b45760003560e01c80638456cb59116100715780638456cb591461022857806385e68531146102325780638da5cb5b1461027657806395a078e8146102c0578063bd11f69d1461031c578063e2f9ed1514610368576100b4565b806302fb0c5e146100b9578063046f7da2146100db5780630ae5e739146100e557806335de7c62146101295780634120657a1461017057806368b78b7a146101cc575b600080fd5b6100c16103b5565b604051808215151515815260200191505060405180910390f35b6100e36103c8565b005b610127600480360360208110156100fb57600080fd5b81019080803573ffffffffffffffffffffffffffffffffffffffff16906020019092919050505061052a565b005b610131610646565b604051808261010060200280838360005b8381101561015d578082015181840152602081019050610142565b5050505090500191505060405180910390f35b6101b26004803603602081101561018657600080fd5b81019080803573ffffffffffffffffffffffffffffffffffffffff1690602001909291905050506106bd565b604051808215151515815260200191505060405180910390f35b610208600480360360408110156101e257600080fd5b81019080803560ff169060200190929190803560ff1690602001909291905050506106dd565b604051808262ffffff1662ffffff16815260200191505060405180910390f35b610230610718565b005b6102746004803603602081101561024857600080fd5b81019080803573ffffffffffffffffffffffffffffffffffffffff169060200190929190505050610878565b005b61027e610a32565b604051808273ffffffffffffffffffffffffffffffffffffffff1673ffffffffffffffffffffffffffffffffffffffff16815260200191505060405180910390f35b610302600480360360208110156102d657600080fd5b81019080803573ffffffffffffffffffffffffffffffffffffffff169060200190929190505050610a57565b604051808215151515815260200191505060405180910390f35b6103486004803603602081101561033257600080fd5b8101908080359060200190929190505050610ab4565b604051808262ffffff1662ffffff16815260200191505060405180910390f35b6103b36004803603606081101561037e57600080fd5b81019080803560ff169060200190929190803560ff169060200190929190803562ffffff169060200190929190505050610ae1565b005b600060149054906101000a900460ff1681565b6000809054906101000a900473ffffffffffffffffffffffffffffffffffffffff1673ffffffffffffffffffffffffffffffffffffffff163373ffffffffffffffffffffffffffffffffffffffff161461048a576040517f08c379a00000000000000000000000000000000000000000000000000000000081526004018080602001828103825260148152602001807f73656e646572206d757374206265206f776e657200000000000000000000000081525060200191505060405180910390fd5b600060149054906101000a900460ff161561050d576040517f08c379a00000000000000000000000000000000000000000000000000000000081526004018080602001828103825260138152602001807f5069786965206973206e6f74207061757365640000000000000000000000000081525060200191505060405180910390fd5b6001600060146101000a81548160ff021916908315150217905550565b6000809054906101000a900473ffffffffffffffffffffffffffffffffffffffff1673ffffffffffffffffffffffffffffffffffffffff163373ffffffffffffffffffffffffffffffffffffffff16146105ec576040517f08c379a00000000000000000000000000000000000000000000000000000000081526004018080602001828103825260148152602001807f73656e646572206d757374206265206f776e657200000000000000000000000081525060200191505060405180910390fd5b60018060008373ffffffffffffffffffffffffffffffffffffffff1673ffffffffffffffffffffffffffffffffffffffff16815260200190815260200160002060006101000a81548160ff02191690831515021790555050565b61064e610c61565b600261010080602002604051908101604052809291908261010080156106b3576020028201916000905b82829054906101000a900462ffffff1662ffffff16815260200190600301906020826002010492830192600103820291508084116106785790505b5050505050905090565b60016020528060005260406000206000915054906101000a900460ff1681565b6000600282601085020160ff1661010081106106f557fe5b600a91828204019190066003029054906101000a900462ffffff16905092915050565b6000809054906101000a900473ffffffffffffffffffffffffffffffffffffffff1673ffffffffffffffffffffffffffffffffffffffff163373ffffffffffffffffffffffffffffffffffffffff16146107da576040517f08c379a00000000000000000000000000000000000000000000000000000000081526004018080602001828103825260148152602001807f73656e646572206d757374206265206f776e657200000000000000000000000081525060200191505060405180910390fd5b600060149054906101000a900460ff1661085c576040517f08c379a00000000000000000000000000000000000000000000000000000000081526004018080602001828103825260138152602001807f5069786965206973206e6f74206163746976650000000000000000000000000081525060200191505060405180910390fd5b60008060146101000a81548160ff021916908315150217905550565b6000809054906101000a900473ffffffffffffffffffffffffffffffffffffffff1673ffffffffffffffffffffffffffffffffffffffff163373ffffffffffffffffffffffffffffffffffffffff161461093a576040517f08c379a00000000000000000000000000000000000000000000000000000000081526004018080602001828103825260148152602001807f73656e646572206d757374206265206f776e657200000000000000000000000081525060200191505060405180910390fd5b6000809054906101000a900473ffffffffffffffffffffffffffffffffffffffff1673ffffffffffffffffffffffffffffffffffffffff168173ffffffffffffffffffffffffffffffffffffffff1614156109e0576040517f08c379a0000000000000000000000000000000000000000000000000000000008152600401808060200182810382526024815260200180610cad6024913960400191505060405180910390fd5b600160008273ffffffffffffffffffffffffffffffffffffffff1673ffffffffffffffffffffffffffffffffffffffff16815260200190815260200160002060006101000a81549060ff021916905550565b6000809054906101000a900473ffffffffffffffffffffffffffffffffffffffff1681565b600060011515600160008473ffffffffffffffffffffffffffffffffffffffff1673ffffffffffffffffffffffffffffffffffffffff16815260200190815260200160002060009054906101000a900460ff161515149050919050565b6002816101008110610ac257fe5b600a9182820401919006600302915054906101000a900462ffffff1681565b600060149054906101000a900460ff16610b63576040517f08c379a00000000000000000000000000000000000000000000000000000000081526004018080602001828103825260138152602001807f5069786965206973206e6f74206163746976650000000000000000000000000081525060200191505060405180910390fd5b610b6c33610a57565b610bc1576040517f08c379a0000000000000000000000000000000000000000000000000000000008152600401808060200182810382526027815260200180610c866027913960400191505060405180910390fd5b80600283601086020160ff166101008110610bd857fe5b600a91828204019190066003026101000a81548162ffffff021916908362ffffff1602179055507fb854c806135bd2c3d62427fc60c932437b13b24d52d82d8596dd18a0c395d5f4838383604051808460ff1660ff1681526020018360ff1660ff1681526020018262ffffff1662ffffff168152602001935050505060405180910390a1505050565b6040518061200001604052806101009060208202803883398082019150509050509056fe41646472657373206973206e6f7420616c6c6f77656420746f2063616c6c20736574436f6c6f72546865206f776e65722773206163636573732063616e6e6f74206265207265766f6b6564a265627a7a7231582075db0c5bb52589e09420e498e12072d95a60038d1d63cffef253e97d742a6c7164736f6c634300050c0032",
  "source": "pragma solidity >=0.4.21 <0.6.0;\r\n\r\ncontract Pixie {\r\n\r\n  address public owner;\r\n\r\n  bool public active = true;\r\n\r\n  mapping(address => bool) public allowedAddresses;\r\n\r\n  uint8 constant numColumns = 16;\r\n  uint8 constant numRows = 16;\r\n  uint24[numColumns * numRows] public colors;\r\n\r\n  event ColorSetEvent(uint8 row, uint8 column, uint24 color);\r\n\r\n  constructor() public {\r\n    owner = msg.sender;\r\n    grantAccess(owner);\r\n\r\n    // Set the initial colors for each pixel\r\n    for(uint8 i = 0; i < numRows; i++) {\r\n      for(uint8 j = 0; j < numColumns; j++) {\r\n        // Do an inline assignment of the colors rather than calling setColor so we don't emit events during initialization\r\n        colors[i * numColumns + j] = 0xfcfcfc;\r\n      }\r\n    }\r\n  }\r\n\r\n  modifier onlyOwner() {\r\n    require(msg.sender == owner, \"sender must be owner\");\r\n    _;\r\n  }\r\n\r\n  modifier onlyWhenActive() {\r\n    require(active, \"Pixie is not active\");\r\n    _;\r\n  }\r\n\r\n  modifier onlyWhenPaused() {\r\n    require(!active, \"Pixie is not paused\");\r\n    _;\r\n  }\r\n\r\n  function pause() public onlyOwner onlyWhenActive {\r\n    active = false;\r\n  }\r\n\r\n  function resume() public onlyOwner onlyWhenPaused {\r\n    active = true;\r\n  }\r\n\r\n  function grantAccess(address account) public onlyOwner {\r\n    allowedAddresses[account] = true;\r\n  }\r\n\r\n  function revokeAccess(address account) public onlyOwner {\r\n    require(account != owner, \"The owner's access cannot be revoked\");\r\n    delete allowedAddresses[account];\r\n  }\r\n\r\n  function hasAccess(address account) public view returns (bool allowed) {\r\n    return allowedAddresses[account] == true;\r\n  }\r\n\r\n  function getAllColors() public view returns (uint24[numColumns * numRows] memory _colors) {\r\n    return colors;\r\n  }\r\n\r\n  function getColor(uint8 row, uint8 column) public view returns (uint24 color) {\r\n    return colors[row * numColumns + column];\r\n  }\r\n\r\n  function setColor(uint8 row, uint8 column, uint24 color) public onlyWhenActive {\r\n    require(hasAccess(msg.sender), \"Address is not allowed to call setColor\");\r\n    colors[row * numColumns + column] = color;\r\n\r\n    emit ColorSetEvent(row, column, color);\r\n  }\r\n}",
  "sourcePath": "C:/Users/Mike/Code/Sylph/Pixie/src/contracts/Pixie.sol",
  "compiler": {
    "name": "solc",
    "version": "0.5.12+commit.7709ece9.Emscripten.clang"
  },
  "schemaVersion": "3.0.19",
  "updatedAt": "2019-12-20T20:24:55.230Z",
  "networkType": "ethereum",
  "devdoc": {
    "methods": {}
  },
  "userdoc": {
    "methods": {}
  }
}