{
  "contractName": "Pixie",
  "abi": [
    {
      "constant": true,
      "inputs": [],
      "name": "active",
      "outputs": [
        {
          "name": "",
          "type": "bool"
        }
      ],
      "payable": false,
      "stateMutability": "view",
      "type": "function"
    },
    {
      "constant": true,
      "inputs": [
        {
          "name": "",
          "type": "address"
        }
      ],
      "name": "allowedAddresses",
      "outputs": [
        {
          "name": "",
          "type": "bool"
        }
      ],
      "payable": false,
      "stateMutability": "view",
      "type": "function"
    },
    {
      "constant": true,
      "inputs": [],
      "name": "owner",
      "outputs": [
        {
          "name": "",
          "type": "address"
        }
      ],
      "payable": false,
      "stateMutability": "view",
      "type": "function"
    },
    {
      "constant": true,
      "inputs": [
        {
          "name": "",
          "type": "uint256"
        }
      ],
      "name": "colors",
      "outputs": [
        {
          "name": "",
          "type": "uint24"
        }
      ],
      "payable": false,
      "stateMutability": "view",
      "type": "function"
    },
    {
      "inputs": [],
      "payable": false,
      "stateMutability": "nonpayable",
      "type": "constructor"
    },
    {
      "anonymous": false,
      "inputs": [
        {
          "indexed": false,
          "name": "row",
          "type": "uint8"
        },
        {
          "indexed": false,
          "name": "column",
          "type": "uint8"
        },
        {
          "indexed": false,
          "name": "color",
          "type": "uint24"
        }
      ],
      "name": "ColorSetEvent",
      "type": "event"
    },
    {
      "constant": false,
      "inputs": [],
      "name": "pause",
      "outputs": [],
      "payable": false,
      "stateMutability": "nonpayable",
      "type": "function"
    },
    {
      "constant": false,
      "inputs": [],
      "name": "resume",
      "outputs": [],
      "payable": false,
      "stateMutability": "nonpayable",
      "type": "function"
    },
    {
      "constant": false,
      "inputs": [
        {
          "name": "account",
          "type": "address"
        }
      ],
      "name": "grantAccess",
      "outputs": [],
      "payable": false,
      "stateMutability": "nonpayable",
      "type": "function"
    },
    {
      "constant": false,
      "inputs": [
        {
          "name": "account",
          "type": "address"
        }
      ],
      "name": "revokeAccess",
      "outputs": [],
      "payable": false,
      "stateMutability": "nonpayable",
      "type": "function"
    },
    {
      "constant": true,
      "inputs": [
        {
          "name": "account",
          "type": "address"
        }
      ],
      "name": "hasAccess",
      "outputs": [
        {
          "name": "allowed",
          "type": "bool"
        }
      ],
      "payable": false,
      "stateMutability": "view",
      "type": "function"
    },
    {
      "constant": true,
      "inputs": [],
      "name": "getAllColors",
      "outputs": [
        {
          "name": "_colors",
          "type": "uint24[256]"
        }
      ],
      "payable": false,
      "stateMutability": "view",
      "type": "function"
    },
    {
      "constant": true,
      "inputs": [
        {
          "name": "row",
          "type": "uint8"
        },
        {
          "name": "column",
          "type": "uint8"
        }
      ],
      "name": "getColor",
      "outputs": [
        {
          "name": "color",
          "type": "uint24"
        }
      ],
      "payable": false,
      "stateMutability": "view",
      "type": "function"
    },
    {
      "constant": false,
      "inputs": [
        {
          "name": "row",
          "type": "uint8"
        },
        {
          "name": "column",
          "type": "uint8"
        },
        {
          "name": "color",
          "type": "uint24"
        }
      ],
      "name": "setColor",
      "outputs": [],
      "payable": false,
      "stateMutability": "nonpayable",
      "type": "function"
    }
  ],
  "bytecode": "0x60806040526001600060146101000a81548160ff02191690831515021790555034801561002b57600080fd5b50336000806101000a81548173ffffffffffffffffffffffffffffffffffffffff021916908373ffffffffffffffffffffffffffffffffffffffff1602179055506100a56000809054906101000a900473ffffffffffffffffffffffffffffffffffffffff16610133640100000000026401000000009004565b60008090505b601060ff168160ff16101561012d5760008090505b601060ff168160ff16101561011f5762fcfcfc600282601085020160ff16610100811015156100eb57fe5b600a91828204019190066003026101000a81548162ffffff021916908362ffffff16021790555080806001019150506100c0565b5080806001019150506100ab565b50610251565b6000809054906101000a900473ffffffffffffffffffffffffffffffffffffffff1673ffffffffffffffffffffffffffffffffffffffff163373ffffffffffffffffffffffffffffffffffffffff161415156101f7576040517f08c379a00000000000000000000000000000000000000000000000000000000081526004018080602001828103825260148152602001807f73656e646572206d757374206265206f776e657200000000000000000000000081525060200191505060405180910390fd5b60018060008373ffffffffffffffffffffffffffffffffffffffff1673ffffffffffffffffffffffffffffffffffffffff16815260200190815260200160002060006101000a81548160ff02191690831515021790555050565b610df2806102606000396000f3fe6080604052600436106100ba576000357c0100000000000000000000000000000000000000000000000000000000900463ffffffff16806302fb0c5e146100bf578063046f7da2146100ee5780630ae5e7391461010557806335de7c62146101565780634120657a146101aa57806368b78b7a146102135780638456cb591461027c57806385e68531146102935780638da5cb5b146102e457806395a078e81461033b578063bd11f69d146103a4578063e2f9ed15146103fd575b600080fd5b3480156100cb57600080fd5b506100d4610457565b604051808215151515815260200191505060405180910390f35b3480156100fa57600080fd5b5061010361046a565b005b34801561011157600080fd5b506101546004803603602081101561012857600080fd5b81019080803573ffffffffffffffffffffffffffffffffffffffff1690602001909291905050506105d0565b005b34801561016257600080fd5b5061016b6106ee565b604051808261010060200280838360005b8381101561019757808201518184015260208101905061017c565b5050505090500191505060405180910390f35b3480156101b657600080fd5b506101f9600480360360208110156101cd57600080fd5b81019080803573ffffffffffffffffffffffffffffffffffffffff169060200190929190505050610765565b604051808215151515815260200191505060405180910390f35b34801561021f57600080fd5b5061025c6004803603604081101561023657600080fd5b81019080803560ff169060200190929190803560ff169060200190929190505050610785565b604051808262ffffff1662ffffff16815260200191505060405180910390f35b34801561028857600080fd5b506102916107c2565b005b34801561029f57600080fd5b506102e2600480360360208110156102b657600080fd5b81019080803573ffffffffffffffffffffffffffffffffffffffff169060200190929190505050610926565b005b3480156102f057600080fd5b506102f9610b27565b604051808273ffffffffffffffffffffffffffffffffffffffff1673ffffffffffffffffffffffffffffffffffffffff16815260200191505060405180910390f35b34801561034757600080fd5b5061038a6004803603602081101561035e57600080fd5b81019080803573ffffffffffffffffffffffffffffffffffffffff169060200190929190505050610b4c565b604051808215151515815260200191505060405180910390f35b3480156103b057600080fd5b506103dd600480360360208110156103c757600080fd5b8101908080359060200190929190505050610ba9565b604051808262ffffff1662ffffff16815260200191505060405180910390f35b34801561040957600080fd5b506104556004803603606081101561042057600080fd5b81019080803560ff169060200190929190803560ff169060200190929190803562ffffff169060200190929190505050610bd8565b005b600060149054906101000a900460ff1681565b6000809054906101000a900473ffffffffffffffffffffffffffffffffffffffff1673ffffffffffffffffffffffffffffffffffffffff163373ffffffffffffffffffffffffffffffffffffffff1614151561052e576040517f08c379a00000000000000000000000000000000000000000000000000000000081526004018080602001828103825260148152602001807f73656e646572206d757374206265206f776e657200000000000000000000000081525060200191505060405180910390fd5b600060149054906101000a900460ff161515156105b3576040517f08c379a00000000000000000000000000000000000000000000000000000000081526004018080602001828103825260138152602001807f5069786965206973206e6f74207061757365640000000000000000000000000081525060200191505060405180910390fd5b6001600060146101000a81548160ff021916908315150217905550565b6000809054906101000a900473ffffffffffffffffffffffffffffffffffffffff1673ffffffffffffffffffffffffffffffffffffffff163373ffffffffffffffffffffffffffffffffffffffff16141515610694576040517f08c379a00000000000000000000000000000000000000000000000000000000081526004018080602001828103825260148152602001807f73656e646572206d757374206265206f776e657200000000000000000000000081525060200191505060405180910390fd5b60018060008373ffffffffffffffffffffffffffffffffffffffff1673ffffffffffffffffffffffffffffffffffffffff16815260200190815260200160002060006101000a81548160ff02191690831515021790555050565b6106f6610da1565b6002610100806020026040519081016040528092919082610100801561075b576020028201916000905b82829054906101000a900462ffffff1662ffffff16815260200190600301906020826002010492830192600103820291508084116107205790505b5050505050905090565b60016020528060005260406000206000915054906101000a900460ff1681565b6000600282601085020160ff166101008110151561079f57fe5b600a91828204019190066003029054906101000a900462ffffff16905092915050565b6000809054906101000a900473ffffffffffffffffffffffffffffffffffffffff1673ffffffffffffffffffffffffffffffffffffffff163373ffffffffffffffffffffffffffffffffffffffff16141515610886576040517f08c379a00000000000000000000000000000000000000000000000000000000081526004018080602001828103825260148152602001807f73656e646572206d757374206265206f776e657200000000000000000000000081525060200191505060405180910390fd5b600060149054906101000a900460ff16151561090a576040517f08c379a00000000000000000000000000000000000000000000000000000000081526004018080602001828103825260138152602001807f5069786965206973206e6f74206163746976650000000000000000000000000081525060200191505060405180910390fd5b60008060146101000a81548160ff021916908315150217905550565b6000809054906101000a900473ffffffffffffffffffffffffffffffffffffffff1673ffffffffffffffffffffffffffffffffffffffff163373ffffffffffffffffffffffffffffffffffffffff161415156109ea576040517f08c379a00000000000000000000000000000000000000000000000000000000081526004018080602001828103825260148152602001807f73656e646572206d757374206265206f776e657200000000000000000000000081525060200191505060405180910390fd5b6000809054906101000a900473ffffffffffffffffffffffffffffffffffffffff1673ffffffffffffffffffffffffffffffffffffffff168173ffffffffffffffffffffffffffffffffffffffff1614151515610ad5576040517f08c379a00000000000000000000000000000000000000000000000000000000081526004018080602001828103825260248152602001807f546865206f776e65722773206163636573732063616e6e6f742062652072657681526020017f6f6b65640000000000000000000000000000000000000000000000000000000081525060400191505060405180910390fd5b600160008273ffffffffffffffffffffffffffffffffffffffff1673ffffffffffffffffffffffffffffffffffffffff16815260200190815260200160002060006101000a81549060ff021916905550565b6000809054906101000a900473ffffffffffffffffffffffffffffffffffffffff1681565b600060011515600160008473ffffffffffffffffffffffffffffffffffffffff1673ffffffffffffffffffffffffffffffffffffffff16815260200190815260200160002060009054906101000a900460ff161515149050919050565b60028161010081101515610bb957fe5b600a9182820401919006600302915054906101000a900462ffffff1681565b600060149054906101000a900460ff161515610c5c576040517f08c379a00000000000000000000000000000000000000000000000000000000081526004018080602001828103825260138152602001807f5069786965206973206e6f74206163746976650000000000000000000000000081525060200191505060405180910390fd5b610c6533610b4c565b1515610cff576040517f08c379a00000000000000000000000000000000000000000000000000000000081526004018080602001828103825260278152602001807f41646472657373206973206e6f7420616c6c6f77656420746f2063616c6c207381526020017f6574436f6c6f720000000000000000000000000000000000000000000000000081525060400191505060405180910390fd5b80600283601086020160ff1661010081101515610d1857fe5b600a91828204019190066003026101000a81548162ffffff021916908362ffffff1602179055507fb854c806135bd2c3d62427fc60c932437b13b24d52d82d8596dd18a0c395d5f4838383604051808460ff1660ff1681526020018360ff1660ff1681526020018262ffffff1662ffffff168152602001935050505060405180910390a1505050565b612000604051908101604052806101009060208202803883398082019150509050509056fea165627a7a7230582010e533074579cee47890128d7ac35bd71035c51e5f1a1d402b5df969954b4a2e0029",
  "source": "pragma solidity >=0.4.21 <0.6.0;\r\n\r\ncontract Pixie {\r\n\r\n  address public owner;\r\n\r\n  bool public active = true;\r\n\r\n  mapping(address => bool) public allowedAddresses;\r\n\r\n  uint8 constant numColumns = 16;\r\n  uint8 constant numRows = 16;\r\n  uint24[numColumns * numRows] public colors;\r\n\r\n  event ColorSetEvent(uint8 row, uint8 column, uint24 color);\r\n\r\n  constructor() public {\r\n    owner = msg.sender;\r\n    grantAccess(owner);\r\n\r\n    // Set the initial colors for each pixel\r\n    for(uint8 i = 0; i < numRows; i++) {\r\n      for(uint8 j = 0; j < numColumns; j++) {\r\n        // Do an inline assignment of the colors rather than calling setColor so we don't emit events during initialization\r\n        colors[i * numColumns + j] = 0xfcfcfc;\r\n      }\r\n    }\r\n  }\r\n\r\n  modifier onlyOwner() {\r\n    require(msg.sender == owner, \"sender must be owner\");\r\n    _;\r\n  }\r\n\r\n  modifier onlyWhenActive() {\r\n    require(active, \"Pixie is not active\");\r\n    _;\r\n  }\r\n\r\n  modifier onlyWhenPaused() {\r\n    require(!active, \"Pixie is not paused\");\r\n    _;\r\n  }\r\n\r\n  function pause() public onlyOwner onlyWhenActive {\r\n    active = false;\r\n  }\r\n\r\n  function resume() public onlyOwner onlyWhenPaused {\r\n    active = true;\r\n  }\r\n\r\n  function grantAccess(address account) public onlyOwner {\r\n    allowedAddresses[account] = true;\r\n  }\r\n\r\n  function revokeAccess(address account) public onlyOwner {\r\n    require(account != owner, \"The owner's access cannot be revoked\");\r\n    delete allowedAddresses[account];\r\n  }\r\n\r\n  function hasAccess(address account) public view returns (bool allowed) {\r\n    return allowedAddresses[account] == true;\r\n  }\r\n\r\n  function getAllColors() public view returns (uint24[numColumns * numRows] memory _colors) {\r\n    return colors;\r\n  }\r\n\r\n  function getColor(uint8 row, uint8 column) public view returns (uint24 color) {\r\n    return colors[row * numColumns + column];\r\n  }\r\n\r\n  function setColor(uint8 row, uint8 column, uint24 color) public onlyWhenActive {\r\n    require(hasAccess(msg.sender), \"Address is not allowed to call setColor\");\r\n    colors[row * numColumns + column] = color;\r\n\r\n    emit ColorSetEvent(row, column, color);\r\n  }\r\n}",
  "sourcePath": "C:/Users/mvandani/Code/Sylph/Pixie/src/contracts/Pixie.sol",
  "compiler": {
    "name": "solc",
    "version": "0.5.0+commit.1d4f565a.Emscripten.clang"
  },
  "schemaVersion": "3.0.9",
  "updatedAt": "2019-12-21T03:19:27.030Z",
  "devdoc": {
    "methods": {}
  },
  "userdoc": {
    "methods": {}
  }
}