{
  "contractName": "Pixie",
  "abi": [
    {
      "constant": true,
      "inputs": [],
      "name": "active",
      "outputs": [
        {
          "name": "",
          "type": "bool"
        }
      ],
      "payable": false,
      "stateMutability": "view",
      "type": "function"
    },
    {
      "constant": true,
      "inputs": [],
      "name": "initialized",
      "outputs": [
        {
          "name": "",
          "type": "bool"
        }
      ],
      "payable": false,
      "stateMutability": "view",
      "type": "function"
    },
    {
      "constant": true,
      "inputs": [
        {
          "name": "",
          "type": "address"
        }
      ],
      "name": "allowedAddresses",
      "outputs": [
        {
          "name": "",
          "type": "bool"
        }
      ],
      "payable": false,
      "stateMutability": "view",
      "type": "function"
    },
    {
      "constant": true,
      "inputs": [],
      "name": "requiresAccessChecks",
      "outputs": [
        {
          "name": "",
          "type": "bool"
        }
      ],
      "payable": false,
      "stateMutability": "view",
      "type": "function"
    },
    {
      "constant": true,
      "inputs": [],
      "name": "owner",
      "outputs": [
        {
          "name": "",
          "type": "address"
        }
      ],
      "payable": false,
      "stateMutability": "view",
      "type": "function"
    },
    {
      "constant": true,
      "inputs": [
        {
          "name": "",
          "type": "uint256"
        }
      ],
      "name": "colors",
      "outputs": [
        {
          "name": "",
          "type": "uint24"
        }
      ],
      "payable": false,
      "stateMutability": "view",
      "type": "function"
    },
    {
      "inputs": [],
      "payable": false,
      "stateMutability": "nonpayable",
      "type": "constructor"
    },
    {
      "anonymous": false,
      "inputs": [
        {
          "indexed": false,
          "name": "row",
          "type": "uint16"
        },
        {
          "indexed": false,
          "name": "column",
          "type": "uint16"
        },
        {
          "indexed": false,
          "name": "color",
          "type": "uint24"
        }
      ],
      "name": "ColorSetEvent",
      "type": "event"
    },
    {
      "constant": false,
      "inputs": [],
      "name": "finishInitialization",
      "outputs": [],
      "payable": false,
      "stateMutability": "nonpayable",
      "type": "function"
    },
    {
      "constant": false,
      "inputs": [],
      "name": "pause",
      "outputs": [],
      "payable": false,
      "stateMutability": "nonpayable",
      "type": "function"
    },
    {
      "constant": false,
      "inputs": [],
      "name": "resume",
      "outputs": [],
      "payable": false,
      "stateMutability": "nonpayable",
      "type": "function"
    },
    {
      "constant": false,
      "inputs": [],
      "name": "enableAccessChecks",
      "outputs": [],
      "payable": false,
      "stateMutability": "nonpayable",
      "type": "function"
    },
    {
      "constant": false,
      "inputs": [],
      "name": "disableAccessChecks",
      "outputs": [],
      "payable": false,
      "stateMutability": "nonpayable",
      "type": "function"
    },
    {
      "constant": false,
      "inputs": [
        {
          "name": "account",
          "type": "address"
        }
      ],
      "name": "grantAccess",
      "outputs": [],
      "payable": false,
      "stateMutability": "nonpayable",
      "type": "function"
    },
    {
      "constant": false,
      "inputs": [
        {
          "name": "account",
          "type": "address"
        }
      ],
      "name": "revokeAccess",
      "outputs": [],
      "payable": false,
      "stateMutability": "nonpayable",
      "type": "function"
    },
    {
      "constant": true,
      "inputs": [
        {
          "name": "account",
          "type": "address"
        }
      ],
      "name": "hasAccess",
      "outputs": [
        {
          "name": "allowed",
          "type": "bool"
        }
      ],
      "payable": false,
      "stateMutability": "view",
      "type": "function"
    },
    {
      "constant": true,
      "inputs": [],
      "name": "getNumColumns",
      "outputs": [
        {
          "name": "_numColumns",
          "type": "uint16"
        }
      ],
      "payable": false,
      "stateMutability": "pure",
      "type": "function"
    },
    {
      "constant": true,
      "inputs": [],
      "name": "getNumRows",
      "outputs": [
        {
          "name": "_numRows",
          "type": "uint16"
        }
      ],
      "payable": false,
      "stateMutability": "pure",
      "type": "function"
    },
    {
      "constant": true,
      "inputs": [],
      "name": "getAllColors",
      "outputs": [
        {
          "name": "_colors",
          "type": "uint24[1024]"
        }
      ],
      "payable": false,
      "stateMutability": "view",
      "type": "function"
    },
    {
      "constant": true,
      "inputs": [
        {
          "name": "row",
          "type": "uint8"
        },
        {
          "name": "column",
          "type": "uint8"
        }
      ],
      "name": "getColor",
      "outputs": [
        {
          "name": "color",
          "type": "uint24"
        }
      ],
      "payable": false,
      "stateMutability": "view",
      "type": "function"
    },
    {
      "constant": false,
      "inputs": [
        {
          "name": "row",
          "type": "uint8"
        },
        {
          "name": "column",
          "type": "uint8"
        },
        {
          "name": "color",
          "type": "uint24"
        }
      ],
      "name": "setColor",
      "outputs": [],
      "payable": false,
      "stateMutability": "nonpayable",
      "type": "function"
    },
    {
      "constant": false,
      "inputs": [
        {
          "name": "column",
          "type": "uint8"
        },
        {
          "name": "color",
          "type": "uint24"
        }
      ],
      "name": "initializeColumn",
      "outputs": [],
      "payable": false,
      "stateMutability": "nonpayable",
      "type": "function"
    }
  ],
  "bytecode": "0x608060405260008060146101000a81548160ff0219169083151502179055506001600060156101000a81548160ff0219169083151502179055506001600060166101000a81548160ff02191690831515021790555034801561006057600080fd5b50336000806101000a81548173ffffffffffffffffffffffffffffffffffffffff021916908373ffffffffffffffffffffffffffffffffffffffff1602179055506100da6000809054906101000a900473ffffffffffffffffffffffffffffffffffffffff166100df640100000000026401000000009004565b6101fd565b6000809054906101000a900473ffffffffffffffffffffffffffffffffffffffff1673ffffffffffffffffffffffffffffffffffffffff163373ffffffffffffffffffffffffffffffffffffffff161415156101a3576040517f08c379a00000000000000000000000000000000000000000000000000000000081526004018080602001828103825260148152602001807f73656e646572206d757374206265206f776e657200000000000000000000000081525060200191505060405180910390fd5b60018060008373ffffffffffffffffffffffffffffffffffffffff1673ffffffffffffffffffffffffffffffffffffffff16815260200190815260200160002060006101000a81548160ff02191690831515021790555050565b6115008061020c6000396000f3fe608060405260043610610112576000357c0100000000000000000000000000000000000000000000000000000000900463ffffffff16806302fb0c5e14610117578063046f7da2146101465780630ae5e7391461015d578063158ef93e146101ae5780631dafc231146101dd57806335de7c62146101f45780634120657a14610248578063610319d4146102b157806368b78b7a146102c85780636a85762f146103315780638456cb591461036057806385e68531146103775780638da5cb5b146103c857806395a078e81461041f5780639d72d0fe14610488578063acb1c1241461049f578063bd11f69d146104ec578063e2d7db4114610545578063e2f9ed1514610578578063eb396ae5146105d2575b600080fd5b34801561012357600080fd5b5061012c610605565b604051808215151515815260200191505060405180910390f35b34801561015257600080fd5b5061015b610618565b005b34801561016957600080fd5b506101ac6004803603602081101561018057600080fd5b81019080803573ffffffffffffffffffffffffffffffffffffffff16906020019092919050505061077e565b005b3480156101ba57600080fd5b506101c361089c565b604051808215151515815260200191505060405180910390f35b3480156101e957600080fd5b506101f26108af565b005b34801561020057600080fd5b50610209610990565b604051808261040060200280838360005b8381101561023557808201518184015260208101905061021a565b5050505090500191505060405180910390f35b34801561025457600080fd5b506102976004803603602081101561026b57600080fd5b81019080803573ffffffffffffffffffffffffffffffffffffffff169060200190929190505050610a07565b604051808215151515815260200191505060405180910390f35b3480156102bd57600080fd5b506102c6610a27565b005b3480156102d457600080fd5b50610311600480360360408110156102eb57600080fd5b81019080803560ff169060200190929190803560ff169060200190929190505050610b07565b604051808262ffffff1662ffffff16815260200191505060405180910390f35b34801561033d57600080fd5b50610346610b4b565b604051808215151515815260200191505060405180910390f35b34801561036c57600080fd5b50610375610b5e565b005b34801561038357600080fd5b506103c66004803603602081101561039a57600080fd5b81019080803573ffffffffffffffffffffffffffffffffffffffff169060200190929190505050610cc2565b005b3480156103d457600080fd5b506103dd610ec3565b604051808273ffffffffffffffffffffffffffffffffffffffff1673ffffffffffffffffffffffffffffffffffffffff16815260200191505060405180910390f35b34801561042b57600080fd5b5061046e6004803603602081101561044257600080fd5b81019080803573ffffffffffffffffffffffffffffffffffffffff169060200190929190505050610ee8565b604051808215151515815260200191505060405180910390f35b34801561049457600080fd5b5061049d610f45565b005b3480156104ab57600080fd5b506104ea600480360360408110156104c257600080fd5b81019080803560ff169060200190929190803562ffffff169060200190929190505050611026565b005b3480156104f857600080fd5b506105256004803603602081101561050f57600080fd5b8101908080359060200190929190505050611202565b604051808262ffffff1662ffffff16815260200191505060405180910390f35b34801561055157600080fd5b5061055a611231565b604051808261ffff1661ffff16815260200191505060405180910390f35b34801561058457600080fd5b506105d06004803603606081101561059b57600080fd5b81019080803560ff169060200190929190803560ff169060200190929190803562ffffff16906020019092919050505061123a565b005b3480156105de57600080fd5b506105e76114a6565b604051808261ffff1661ffff16815260200191505060405180910390f35b600060159054906101000a900460ff1681565b6000809054906101000a900473ffffffffffffffffffffffffffffffffffffffff1673ffffffffffffffffffffffffffffffffffffffff163373ffffffffffffffffffffffffffffffffffffffff161415156106dc576040517f08c379a00000000000000000000000000000000000000000000000000000000081526004018080602001828103825260148152602001807f73656e646572206d757374206265206f776e657200000000000000000000000081525060200191505060405180910390fd5b600060159054906101000a900460ff16151515610761576040517f08c379a00000000000000000000000000000000000000000000000000000000081526004018080602001828103825260138152602001807f5069786965206973206e6f74207061757365640000000000000000000000000081525060200191505060405180910390fd5b6001600060156101000a81548160ff021916908315150217905550565b6000809054906101000a900473ffffffffffffffffffffffffffffffffffffffff1673ffffffffffffffffffffffffffffffffffffffff163373ffffffffffffffffffffffffffffffffffffffff16141515610842576040517f08c379a00000000000000000000000000000000000000000000000000000000081526004018080602001828103825260148152602001807f73656e646572206d757374206265206f776e657200000000000000000000000081525060200191505060405180910390fd5b60018060008373ffffffffffffffffffffffffffffffffffffffff1673ffffffffffffffffffffffffffffffffffffffff16815260200190815260200160002060006101000a81548160ff02191690831515021790555050565b600060149054906101000a900460ff1681565b6000809054906101000a900473ffffffffffffffffffffffffffffffffffffffff1673ffffffffffffffffffffffffffffffffffffffff163373ffffffffffffffffffffffffffffffffffffffff16141515610973576040517f08c379a00000000000000000000000000000000000000000000000000000000081526004018080602001828103825260148152602001807f73656e646572206d757374206265206f776e657200000000000000000000000081525060200191505060405180910390fd5b6001600060146101000a81548160ff021916908315150217905550565b6109986114af565b600261040080602002604051908101604052809291908261040080156109fd576020028201916000905b82829054906101000a900462ffffff1662ffffff16815260200190600301906020826002010492830192600103820291508084116109c25790505b5050505050905090565b60016020528060005260406000206000915054906101000a900460ff1681565b6000809054906101000a900473ffffffffffffffffffffffffffffffffffffffff1673ffffffffffffffffffffffffffffffffffffffff163373ffffffffffffffffffffffffffffffffffffffff16141515610aeb576040517f08c379a00000000000000000000000000000000000000000000000000000000081526004018080602001828103825260148152602001807f73656e646572206d757374206265206f776e657200000000000000000000000081525060200191505060405180910390fd5b60008060166101000a81548160ff021916908315150217905550565b600060028260ff1660208560ff16020161ffff1661040081101515610b2857fe5b600a91828204019190066003029054906101000a900462ffffff16905092915050565b600060169054906101000a900460ff1681565b6000809054906101000a900473ffffffffffffffffffffffffffffffffffffffff1673ffffffffffffffffffffffffffffffffffffffff163373ffffffffffffffffffffffffffffffffffffffff16141515610c22576040517f08c379a00000000000000000000000000000000000000000000000000000000081526004018080602001828103825260148152602001807f73656e646572206d757374206265206f776e657200000000000000000000000081525060200191505060405180910390fd5b600060159054906101000a900460ff161515610ca6576040517f08c379a00000000000000000000000000000000000000000000000000000000081526004018080602001828103825260138152602001807f5069786965206973206e6f74206163746976650000000000000000000000000081525060200191505060405180910390fd5b60008060156101000a81548160ff021916908315150217905550565b6000809054906101000a900473ffffffffffffffffffffffffffffffffffffffff1673ffffffffffffffffffffffffffffffffffffffff163373ffffffffffffffffffffffffffffffffffffffff16141515610d86576040517f08c379a00000000000000000000000000000000000000000000000000000000081526004018080602001828103825260148152602001807f73656e646572206d757374206265206f776e657200000000000000000000000081525060200191505060405180910390fd5b6000809054906101000a900473ffffffffffffffffffffffffffffffffffffffff1673ffffffffffffffffffffffffffffffffffffffff168173ffffffffffffffffffffffffffffffffffffffff1614151515610e71576040517f08c379a00000000000000000000000000000000000000000000000000000000081526004018080602001828103825260248152602001807f546865206f776e65722773206163636573732063616e6e6f742062652072657681526020017f6f6b65640000000000000000000000000000000000000000000000000000000081525060400191505060405180910390fd5b600160008273ffffffffffffffffffffffffffffffffffffffff1673ffffffffffffffffffffffffffffffffffffffff16815260200190815260200160002060006101000a81549060ff021916905550565b6000809054906101000a900473ffffffffffffffffffffffffffffffffffffffff1681565b600060011515600160008473ffffffffffffffffffffffffffffffffffffffff1673ffffffffffffffffffffffffffffffffffffffff16815260200190815260200160002060009054906101000a900460ff161515149050919050565b6000809054906101000a900473ffffffffffffffffffffffffffffffffffffffff1673ffffffffffffffffffffffffffffffffffffffff163373ffffffffffffffffffffffffffffffffffffffff16141515611009576040517f08c379a00000000000000000000000000000000000000000000000000000000081526004018080602001828103825260148152602001807f73656e646572206d757374206265206f776e657200000000000000000000000081525060200191505060405180910390fd5b6001600060166101000a81548160ff021916908315150217905550565b6000809054906101000a900473ffffffffffffffffffffffffffffffffffffffff1673ffffffffffffffffffffffffffffffffffffffff163373ffffffffffffffffffffffffffffffffffffffff161415156110ea576040517f08c379a00000000000000000000000000000000000000000000000000000000081526004018080602001828103825260148152602001807f73656e646572206d757374206265206f776e657200000000000000000000000081525060200191505060405180910390fd5b600060149054906101000a900460ff16151515611195576040517f08c379a00000000000000000000000000000000000000000000000000000000081526004018080602001828103825260228152602001807f50697869652068617320616c7265616479206265656e20696e697469616c697a81526020017f656400000000000000000000000000000000000000000000000000000000000081525060400191505060405180910390fd5b60008090505b602061ffff168161ffff1610156111fd578160028460ff16602084020161ffff16610400811015156111c957fe5b600a91828204019190066003026101000a81548162ffffff021916908362ffffff160217905550808060010191505061119b565b505050565b6002816104008110151561121257fe5b600a9182820401919006600302915054906101000a900462ffffff1681565b60006020905090565b600060159054906101000a900460ff1615156112be576040517f08c379a00000000000000000000000000000000000000000000000000000000081526004018080602001828103825260138152602001807f5069786965206973206e6f74206163746976650000000000000000000000000081525060200191505060405180910390fd5b600060149054906101000a900460ff161515611342576040517f08c379a000000000000000000000000000000000000000000000000000000000815260040180806020018281038252601e8152602001807f506978696520686173206e6f74206265656e20696e697469616c697a6564000081525060200191505060405180910390fd5b600060169054906101000a900460ff16156113fb5761136033610ee8565b15156113fa576040517f08c379a00000000000000000000000000000000000000000000000000000000081526004018080602001828103825260278152602001807f41646472657373206973206e6f7420616c6c6f77656420746f2063616c6c207381526020017f6574436f6c6f720000000000000000000000000000000000000000000000000081525060400191505060405180910390fd5b5b8060028360ff1660208660ff16020161ffff166104008110151561141b57fe5b600a91828204019190066003026101000a81548162ffffff021916908362ffffff1602179055507f8eda9b5ed4f159a4395b0a50f75846a18b11e582073948a47c4156dc626025dd838383604051808460ff1661ffff1681526020018360ff1661ffff1681526020018262ffffff1662ffffff168152602001935050505060405180910390a1505050565b60006020905090565b618000604051908101604052806104009060208202803883398082019150509050509056fea165627a7a72305820cc6e910eea98e76cf1b9054db9beb1efa9333f18f30e1763e7ddb5f2e750c4d10029",
  "source": "pragma solidity >=0.4.21 <0.6.0;\r\n\r\ncontract Pixie {\r\n\r\n  address public owner;\r\n\r\n  bool public initialized = false;\r\n\r\n  bool public active = true;\r\n\r\n  bool public requiresAccessChecks = true;\r\n\r\n  mapping(address => bool) public allowedAddresses;\r\n\r\n  uint16 constant numColumns = 32;\r\n  uint16 constant numRows = 32;\r\n  uint24[numColumns * numRows] public colors;\r\n\r\n  event ColorSetEvent(uint16 row, uint16 column, uint24 color);\r\n\r\n  constructor() public {\r\n    owner = msg.sender;\r\n    grantAccess(owner);\r\n  }\r\n\r\n  modifier onlyOwner() {\r\n    require(msg.sender == owner, \"sender must be owner\");\r\n    _;\r\n  }\r\n\r\n  modifier onlyBeforeInitialization() {\r\n    require(!initialized, \"Pixie has already been initialized\");\r\n    _;\r\n  }\r\n\r\n  modifier onlyAfterInitialization() {\r\n    require(initialized, \"Pixie has not been initialized\");\r\n    _;\r\n  }\r\n\r\n  modifier onlyWhenActive() {\r\n    require(active, \"Pixie is not active\");\r\n    _;\r\n  }\r\n\r\n  modifier onlyWhenPaused() {\r\n    require(!active, \"Pixie is not paused\");\r\n    _;\r\n  }\r\n\r\n  function finishInitialization() public onlyOwner {\r\n    initialized = true;\r\n  }\r\n\r\n  function pause() public onlyOwner onlyWhenActive {\r\n    active = false;\r\n  }\r\n\r\n  function resume() public onlyOwner onlyWhenPaused {\r\n    active = true;\r\n  }\r\n\r\n  function enableAccessChecks() public onlyOwner {\r\n    requiresAccessChecks = true;\r\n  }\r\n\r\n  function disableAccessChecks() public onlyOwner {\r\n    requiresAccessChecks = false;\r\n  }\r\n\r\n  function grantAccess(address account) public onlyOwner {\r\n    allowedAddresses[account] = true;\r\n  }\r\n\r\n  function revokeAccess(address account) public onlyOwner {\r\n    require(account != owner, \"The owner's access cannot be revoked\");\r\n    delete allowedAddresses[account];\r\n  }\r\n\r\n  function hasAccess(address account) public view returns (bool allowed) {\r\n    return allowedAddresses[account] == true;\r\n  }\r\n\r\n  function getNumColumns() public pure returns(uint16 _numColumns) {\r\n    return numColumns;\r\n  }\r\n\r\n  function getNumRows() public pure returns(uint16 _numRows) {\r\n    return numRows;\r\n  }\r\n\r\n  function getAllColors() public view returns (uint24[numColumns * numRows] memory _colors) {\r\n    return colors;\r\n  }\r\n\r\n  function getColor(uint8 row, uint8 column) public view returns (uint24 color) {\r\n    return colors[row * numColumns + column];\r\n  }\r\n\r\n  function setColor(uint8 row, uint8 column, uint24 color) public onlyWhenActive onlyAfterInitialization {\r\n    if(requiresAccessChecks) {\r\n      require(hasAccess(msg.sender), \"Address is not allowed to call setColor\");\r\n    }\r\n    colors[row * numColumns + column] = color;\r\n\r\n    emit ColorSetEvent(row, column, color);\r\n  }\r\n\r\n  function initializeColumn(uint8 column, uint24 color) public onlyOwner onlyBeforeInitialization {\r\n    for(uint16 i = 0; i < numRows; i++) {\r\n      colors[i * numColumns + column] = color;\r\n    }\r\n  }\r\n}",
  "sourcePath": "C:/Users/mvandani/Code/Sylph/Pixie/src/contracts/Pixie.sol",
  "compiler": {
    "name": "solc",
    "version": "0.5.0+commit.1d4f565a.Emscripten.clang"
  },
  "schemaVersion": "3.0.9",
  "updatedAt": "2020-01-21T03:28:14.108Z",
  "devdoc": {
    "methods": {}
  },
  "userdoc": {
    "methods": {}
  }
}