{
  "contractName": "Pixie",
  "abi": [
    {
      "constant": true,
      "inputs": [],
      "name": "active",
      "outputs": [
        {
          "name": "",
          "type": "bool"
        }
      ],
      "payable": false,
      "stateMutability": "view",
      "type": "function"
    },
    {
      "constant": true,
      "inputs": [
        {
          "name": "",
          "type": "address"
        }
      ],
      "name": "allowedAddresses",
      "outputs": [
        {
          "name": "",
          "type": "bool"
        }
      ],
      "payable": false,
      "stateMutability": "view",
      "type": "function"
    },
    {
      "constant": true,
      "inputs": [],
      "name": "requiresAccessChecks",
      "outputs": [
        {
          "name": "",
          "type": "bool"
        }
      ],
      "payable": false,
      "stateMutability": "view",
      "type": "function"
    },
    {
      "constant": true,
      "inputs": [],
      "name": "owner",
      "outputs": [
        {
          "name": "",
          "type": "address"
        }
      ],
      "payable": false,
      "stateMutability": "view",
      "type": "function"
    },
    {
      "constant": true,
      "inputs": [
        {
          "name": "",
          "type": "uint256"
        }
      ],
      "name": "colors",
      "outputs": [
        {
          "name": "",
          "type": "uint24"
        }
      ],
      "payable": false,
      "stateMutability": "view",
      "type": "function"
    },
    {
      "inputs": [],
      "payable": false,
      "stateMutability": "nonpayable",
      "type": "constructor"
    },
    {
      "anonymous": false,
      "inputs": [
        {
          "indexed": false,
          "name": "row",
          "type": "uint16"
        },
        {
          "indexed": false,
          "name": "column",
          "type": "uint16"
        },
        {
          "indexed": false,
          "name": "color",
          "type": "uint24"
        }
      ],
      "name": "ColorSetEvent",
      "type": "event"
    },
    {
      "constant": false,
      "inputs": [],
      "name": "pause",
      "outputs": [],
      "payable": false,
      "stateMutability": "nonpayable",
      "type": "function"
    },
    {
      "constant": false,
      "inputs": [],
      "name": "resume",
      "outputs": [],
      "payable": false,
      "stateMutability": "nonpayable",
      "type": "function"
    },
    {
      "constant": false,
      "inputs": [],
      "name": "enableAccessChecks",
      "outputs": [],
      "payable": false,
      "stateMutability": "nonpayable",
      "type": "function"
    },
    {
      "constant": false,
      "inputs": [],
      "name": "disableAccessChecks",
      "outputs": [],
      "payable": false,
      "stateMutability": "nonpayable",
      "type": "function"
    },
    {
      "constant": false,
      "inputs": [
        {
          "name": "account",
          "type": "address"
        }
      ],
      "name": "grantAccess",
      "outputs": [],
      "payable": false,
      "stateMutability": "nonpayable",
      "type": "function"
    },
    {
      "constant": false,
      "inputs": [
        {
          "name": "account",
          "type": "address"
        }
      ],
      "name": "revokeAccess",
      "outputs": [],
      "payable": false,
      "stateMutability": "nonpayable",
      "type": "function"
    },
    {
      "constant": true,
      "inputs": [
        {
          "name": "account",
          "type": "address"
        }
      ],
      "name": "hasAccess",
      "outputs": [
        {
          "name": "allowed",
          "type": "bool"
        }
      ],
      "payable": false,
      "stateMutability": "view",
      "type": "function"
    },
    {
      "constant": true,
      "inputs": [],
      "name": "getAllColors",
      "outputs": [
        {
          "name": "_colors",
          "type": "uint24[1024]"
        }
      ],
      "payable": false,
      "stateMutability": "view",
      "type": "function"
    },
    {
      "constant": true,
      "inputs": [
        {
          "name": "row",
          "type": "uint8"
        },
        {
          "name": "column",
          "type": "uint8"
        }
      ],
      "name": "getColor",
      "outputs": [
        {
          "name": "color",
          "type": "uint24"
        }
      ],
      "payable": false,
      "stateMutability": "view",
      "type": "function"
    },
    {
      "constant": false,
      "inputs": [
        {
          "name": "row",
          "type": "uint8"
        },
        {
          "name": "column",
          "type": "uint8"
        },
        {
          "name": "color",
          "type": "uint24"
        }
      ],
      "name": "setColor",
      "outputs": [],
      "payable": false,
      "stateMutability": "nonpayable",
      "type": "function"
    }
  ],
  "bytecode": "0x60806040526001600060146101000a81548160ff0219169083151502179055506001600060156101000a81548160ff02191690831515021790555034801561004657600080fd5b50336000806101000a81548173ffffffffffffffffffffffffffffffffffffffff021916908373ffffffffffffffffffffffffffffffffffffffff1602179055506100c06000809054906101000a900473ffffffffffffffffffffffffffffffffffffffff166100c5640100000000026401000000009004565b6101e3565b6000809054906101000a900473ffffffffffffffffffffffffffffffffffffffff1673ffffffffffffffffffffffffffffffffffffffff163373ffffffffffffffffffffffffffffffffffffffff16141515610189576040517f08c379a00000000000000000000000000000000000000000000000000000000081526004018080602001828103825260148152602001807f73656e646572206d757374206265206f776e657200000000000000000000000081525060200191505060405180910390fd5b60018060008373ffffffffffffffffffffffffffffffffffffffff1673ffffffffffffffffffffffffffffffffffffffff16815260200190815260200160002060006101000a81548160ff02191690831515021790555050565b61106a806101f26000396000f3fe6080604052600436106100db576000357c0100000000000000000000000000000000000000000000000000000000900463ffffffff16806302fb0c5e146100e0578063046f7da21461010f5780630ae5e7391461012657806335de7c62146101775780634120657a146101cb578063610319d41461023457806368b78b7a1461024b5780636a85762f146102b45780638456cb59146102e357806385e68531146102fa5780638da5cb5b1461034b57806395a078e8146103a25780639d72d0fe1461040b578063bd11f69d14610422578063e2f9ed151461047b575b600080fd5b3480156100ec57600080fd5b506100f56104d5565b604051808215151515815260200191505060405180910390f35b34801561011b57600080fd5b506101246104e8565b005b34801561013257600080fd5b506101756004803603602081101561014957600080fd5b81019080803573ffffffffffffffffffffffffffffffffffffffff16906020019092919050505061064e565b005b34801561018357600080fd5b5061018c61076c565b604051808261040060200280838360005b838110156101b857808201518184015260208101905061019d565b5050505090500191505060405180910390f35b3480156101d757600080fd5b5061021a600480360360208110156101ee57600080fd5b81019080803573ffffffffffffffffffffffffffffffffffffffff1690602001909291905050506107e3565b604051808215151515815260200191505060405180910390f35b34801561024057600080fd5b50610249610803565b005b34801561025757600080fd5b506102946004803603604081101561026e57600080fd5b81019080803560ff169060200190929190803560ff1690602001909291905050506108e3565b604051808262ffffff1662ffffff16815260200191505060405180910390f35b3480156102c057600080fd5b506102c9610927565b604051808215151515815260200191505060405180910390f35b3480156102ef57600080fd5b506102f861093a565b005b34801561030657600080fd5b506103496004803603602081101561031d57600080fd5b81019080803573ffffffffffffffffffffffffffffffffffffffff169060200190929190505050610a9e565b005b34801561035757600080fd5b50610360610c9f565b604051808273ffffffffffffffffffffffffffffffffffffffff1673ffffffffffffffffffffffffffffffffffffffff16815260200191505060405180910390f35b3480156103ae57600080fd5b506103f1600480360360208110156103c557600080fd5b81019080803573ffffffffffffffffffffffffffffffffffffffff169060200190929190505050610cc4565b604051808215151515815260200191505060405180910390f35b34801561041757600080fd5b50610420610d21565b005b34801561042e57600080fd5b5061045b6004803603602081101561044557600080fd5b8101908080359060200190929190505050610e02565b604051808262ffffff1662ffffff16815260200191505060405180910390f35b34801561048757600080fd5b506104d36004803603606081101561049e57600080fd5b81019080803560ff169060200190929190803560ff169060200190929190803562ffffff169060200190929190505050610e31565b005b600060149054906101000a900460ff1681565b6000809054906101000a900473ffffffffffffffffffffffffffffffffffffffff1673ffffffffffffffffffffffffffffffffffffffff163373ffffffffffffffffffffffffffffffffffffffff161415156105ac576040517f08c379a00000000000000000000000000000000000000000000000000000000081526004018080602001828103825260148152602001807f73656e646572206d757374206265206f776e657200000000000000000000000081525060200191505060405180910390fd5b600060149054906101000a900460ff16151515610631576040517f08c379a00000000000000000000000000000000000000000000000000000000081526004018080602001828103825260138152602001807f5069786965206973206e6f74207061757365640000000000000000000000000081525060200191505060405180910390fd5b6001600060146101000a81548160ff021916908315150217905550565b6000809054906101000a900473ffffffffffffffffffffffffffffffffffffffff1673ffffffffffffffffffffffffffffffffffffffff163373ffffffffffffffffffffffffffffffffffffffff16141515610712576040517f08c379a00000000000000000000000000000000000000000000000000000000081526004018080602001828103825260148152602001807f73656e646572206d757374206265206f776e657200000000000000000000000081525060200191505060405180910390fd5b60018060008373ffffffffffffffffffffffffffffffffffffffff1673ffffffffffffffffffffffffffffffffffffffff16815260200190815260200160002060006101000a81548160ff02191690831515021790555050565b610774611019565b600261040080602002604051908101604052809291908261040080156107d9576020028201916000905b82829054906101000a900462ffffff1662ffffff168152602001906003019060208260020104928301926001038202915080841161079e5790505b5050505050905090565b60016020528060005260406000206000915054906101000a900460ff1681565b6000809054906101000a900473ffffffffffffffffffffffffffffffffffffffff1673ffffffffffffffffffffffffffffffffffffffff163373ffffffffffffffffffffffffffffffffffffffff161415156108c7576040517f08c379a00000000000000000000000000000000000000000000000000000000081526004018080602001828103825260148152602001807f73656e646572206d757374206265206f776e657200000000000000000000000081525060200191505060405180910390fd5b60008060156101000a81548160ff021916908315150217905550565b600060028260ff1660208560ff16020161ffff166104008110151561090457fe5b600a91828204019190066003029054906101000a900462ffffff16905092915050565b600060159054906101000a900460ff1681565b6000809054906101000a900473ffffffffffffffffffffffffffffffffffffffff1673ffffffffffffffffffffffffffffffffffffffff163373ffffffffffffffffffffffffffffffffffffffff161415156109fe576040517f08c379a00000000000000000000000000000000000000000000000000000000081526004018080602001828103825260148152602001807f73656e646572206d757374206265206f776e657200000000000000000000000081525060200191505060405180910390fd5b600060149054906101000a900460ff161515610a82576040517f08c379a00000000000000000000000000000000000000000000000000000000081526004018080602001828103825260138152602001807f5069786965206973206e6f74206163746976650000000000000000000000000081525060200191505060405180910390fd5b60008060146101000a81548160ff021916908315150217905550565b6000809054906101000a900473ffffffffffffffffffffffffffffffffffffffff1673ffffffffffffffffffffffffffffffffffffffff163373ffffffffffffffffffffffffffffffffffffffff16141515610b62576040517f08c379a00000000000000000000000000000000000000000000000000000000081526004018080602001828103825260148152602001807f73656e646572206d757374206265206f776e657200000000000000000000000081525060200191505060405180910390fd5b6000809054906101000a900473ffffffffffffffffffffffffffffffffffffffff1673ffffffffffffffffffffffffffffffffffffffff168173ffffffffffffffffffffffffffffffffffffffff1614151515610c4d576040517f08c379a00000000000000000000000000000000000000000000000000000000081526004018080602001828103825260248152602001807f546865206f776e65722773206163636573732063616e6e6f742062652072657681526020017f6f6b65640000000000000000000000000000000000000000000000000000000081525060400191505060405180910390fd5b600160008273ffffffffffffffffffffffffffffffffffffffff1673ffffffffffffffffffffffffffffffffffffffff16815260200190815260200160002060006101000a81549060ff021916905550565b6000809054906101000a900473ffffffffffffffffffffffffffffffffffffffff1681565b600060011515600160008473ffffffffffffffffffffffffffffffffffffffff1673ffffffffffffffffffffffffffffffffffffffff16815260200190815260200160002060009054906101000a900460ff161515149050919050565b6000809054906101000a900473ffffffffffffffffffffffffffffffffffffffff1673ffffffffffffffffffffffffffffffffffffffff163373ffffffffffffffffffffffffffffffffffffffff16141515610de5576040517f08c379a00000000000000000000000000000000000000000000000000000000081526004018080602001828103825260148152602001807f73656e646572206d757374206265206f776e657200000000000000000000000081525060200191505060405180910390fd5b6001600060156101000a81548160ff021916908315150217905550565b60028161040081101515610e1257fe5b600a9182820401919006600302915054906101000a900462ffffff1681565b600060149054906101000a900460ff161515610eb5576040517f08c379a00000000000000000000000000000000000000000000000000000000081526004018080602001828103825260138152602001807f5069786965206973206e6f74206163746976650000000000000000000000000081525060200191505060405180910390fd5b600060159054906101000a900460ff1615610f6e57610ed333610cc4565b1515610f6d576040517f08c379a00000000000000000000000000000000000000000000000000000000081526004018080602001828103825260278152602001807f41646472657373206973206e6f7420616c6c6f77656420746f2063616c6c207381526020017f6574436f6c6f720000000000000000000000000000000000000000000000000081525060400191505060405180910390fd5b5b8060028360ff1660208660ff16020161ffff1661040081101515610f8e57fe5b600a91828204019190066003026101000a81548162ffffff021916908362ffffff1602179055507f8eda9b5ed4f159a4395b0a50f75846a18b11e582073948a47c4156dc626025dd838383604051808460ff1661ffff1681526020018360ff1661ffff1681526020018262ffffff1662ffffff168152602001935050505060405180910390a1505050565b618000604051908101604052806104009060208202803883398082019150509050509056fea165627a7a72305820cf8aa5851050f03c98a73d2f8df9ea8ff9d535e5512c160d67551376d59388e80029",
  "source": "pragma solidity >=0.4.21 <0.6.0;\r\n\r\ncontract Pixie {\r\n\r\n  address public owner;\r\n\r\n  bool public active = true;\r\n\r\n  bool public requiresAccessChecks = true;\r\n\r\n  mapping(address => bool) public allowedAddresses;\r\n\r\n  uint16 constant numColumns = 32;\r\n  uint16 constant numRows = 32;\r\n  uint24[numColumns * numRows] public colors;\r\n\r\n  event ColorSetEvent(uint16 row, uint16 column, uint24 color);\r\n\r\n  constructor() public {\r\n    owner = msg.sender;\r\n    grantAccess(owner);\r\n\r\n    // Set the initial colors for each pixel\r\n    /*\r\n    uint16 total = numRows * numColumns;\r\n    for(uint16 i = 0; i < total; i++) {\r\n      // Do an inline assignment of the colors rather than calling setColor so we don't emit events during initialization\r\n      colors[i] = 0xfcfcfc;\r\n    }\r\n    */\r\n  }\r\n\r\n  modifier onlyOwner() {\r\n    require(msg.sender == owner, \"sender must be owner\");\r\n    _;\r\n  }\r\n\r\n  modifier onlyWhenActive() {\r\n    require(active, \"Pixie is not active\");\r\n    _;\r\n  }\r\n\r\n  modifier onlyWhenPaused() {\r\n    require(!active, \"Pixie is not paused\");\r\n    _;\r\n  }\r\n\r\n  function pause() public onlyOwner onlyWhenActive {\r\n    active = false;\r\n  }\r\n\r\n  function resume() public onlyOwner onlyWhenPaused {\r\n    active = true;\r\n  }\r\n\r\n  function enableAccessChecks() public onlyOwner {\r\n    requiresAccessChecks = true;\r\n  }\r\n\r\n  function disableAccessChecks() public onlyOwner {\r\n    requiresAccessChecks = false;\r\n  }\r\n\r\n  function grantAccess(address account) public onlyOwner {\r\n    allowedAddresses[account] = true;\r\n  }\r\n\r\n  function revokeAccess(address account) public onlyOwner {\r\n    require(account != owner, \"The owner's access cannot be revoked\");\r\n    delete allowedAddresses[account];\r\n  }\r\n\r\n  function hasAccess(address account) public view returns (bool allowed) {\r\n    return allowedAddresses[account] == true;\r\n  }\r\n\r\n  function getAllColors() public view returns (uint24[numColumns * numRows] memory _colors) {\r\n    return colors;\r\n  }\r\n\r\n  function getColor(uint8 row, uint8 column) public view returns (uint24 color) {\r\n    return colors[row * numColumns + column];\r\n  }\r\n\r\n  function setColor(uint8 row, uint8 column, uint24 color) public onlyWhenActive {\r\n    if(requiresAccessChecks) {\r\n      require(hasAccess(msg.sender), \"Address is not allowed to call setColor\");\r\n    }\r\n    colors[row * numColumns + column] = color;\r\n\r\n    emit ColorSetEvent(row, column, color);\r\n  }\r\n}",
  "sourcePath": "C:/Users/mvandani/Code/Sylph/Pixie/src/contracts/Pixie.sol",
  "compiler": {
    "name": "solc",
    "version": "0.5.0+commit.1d4f565a.Emscripten.clang"
  },
  "schemaVersion": "3.0.9",
  "updatedAt": "2020-01-18T12:41:08.313Z",
  "devdoc": {
    "methods": {}
  },
  "userdoc": {
    "methods": {}
  }
}